{
    "_format": "hh-sol-artifact-1",
    "contractName": "ParkingPass",
    "sourceName": "contracts/ParkingPass.sol",
    "abi": [
        {
            "anonymous": false,
            "inputs": [
                {
                    "indexed": false,
                    "internalType": "uint256",
                    "name": "slotId",
                    "type": "uint256"
                },
                {
                    "indexed": true,
                    "internalType": "address",
                    "name": "user",
                    "type": "address"
                }
            ],
            "name": "SlotBooked",
            "type": "event"
        },
        {
            "anonymous": false,
            "inputs": [
                {
                    "indexed": false,
                    "internalType": "uint256",
                    "name": "slotId",
                    "type": "uint256"
                },
                {
                    "indexed": true,
                    "internalType": "address",
                    "name": "user",
                    "type": "address"
                }
            ],
            "name": "SlotCancelled",
            "type": "event"
        },
        {
            "inputs": [
                {
                    "internalType": "uint256",
                    "name": "slotId",
                    "type": "uint256"
                }
            ],
            "name": "bookSlot",
            "outputs": [],
            "stateMutability": "nonpayable",
            "type": "function"
        },
        {
            "inputs": [
                {
                    "internalType": "uint256",
                    "name": "",
                    "type": "uint256"
                }
            ],
            "name": "bookings",
            "outputs": [
                {
                    "internalType": "address",
                    "name": "user",
                    "type": "address"
                },
                {
                    "internalType": "uint256",
                    "name": "timestamp",
                    "type": "uint256"
                }
            ],
            "stateMutability": "view",
            "type": "function"
        },
        {
            "inputs": [
                {
                    "internalType": "uint256",
                    "name": "slotId",
                    "type": "uint256"
                }
            ],
            "name": "cancelBooking",
            "outputs": [],
            "stateMutability": "nonpayable",
            "type": "function"
        },
        {
            "inputs": [
                {
                    "internalType": "uint256",
                    "name": "slotId",
                    "type": "uint256"
                }
            ],
            "name": "getSlotUser",
            "outputs": [
                {
                    "internalType": "address",
                    "name": "",
                    "type": "address"
                }
            ],
            "stateMutability": "view",
            "type": "function"
        }
    ],
    "bytecode": "0x6080604052348015600f57600080fd5b506106618061001f6000396000f3fe608060405234801561001057600080fd5b506004361061004c5760003560e01c80630dca825e1461005157806319159e6e1461006d5780631dab301e1461008957806320f8192c146100ba575b600080fd5b61006b60048036038101906100669190610466565b6100ea565b005b61008760048036038101906100829190610466565b610222565b005b6100a3600480360381019061009e9190610466565b6103a8565b6040516100b19291906104e3565b60405180910390f35b6100d460048036038101906100cf9190610466565b6103ec565b6040516100e1919061050c565b60405180910390f35b3373ffffffffffffffffffffffffffffffffffffffff1660008083815260200190815260200160002060000160009054906101000a900473ffffffffffffffffffffffffffffffffffffffff1673ffffffffffffffffffffffffffffffffffffffff161461018d576040517f08c379a000000000000000000000000000000000000000000000000000000000815260040161018490610584565b60405180910390fd5b600080828152602001908152602001600020600080820160006101000a81549073ffffffffffffffffffffffffffffffffffffffff0219169055600182016000905550503373ffffffffffffffffffffffffffffffffffffffff167f73f1e82f9baaa892cea145120b87eb368655bb87a33560d89221928578b4655d8260405161021791906105a4565b60405180910390a250565b600073ffffffffffffffffffffffffffffffffffffffff1660008083815260200190815260200160002060000160009054906101000a900473ffffffffffffffffffffffffffffffffffffffff1673ffffffffffffffffffffffffffffffffffffffff16146102c6576040517f08c379a00000000000000000000000000000000000000000000000000000000081526004016102bd9061060b565b60405180910390fd5b60405180604001604052803373ffffffffffffffffffffffffffffffffffffffff1681526020014281525060008083815260200190815260200160002060008201518160000160006101000a81548173ffffffffffffffffffffffffffffffffffffffff021916908373ffffffffffffffffffffffffffffffffffffffff160217905550602082015181600101559050503373ffffffffffffffffffffffffffffffffffffffff167f3b8ce702eda06485c7aabdb0c387135b1dd082863c1d289161e2c08de361e38c8260405161039d91906105a4565b60405180910390a250565b60006020528060005260406000206000915090508060000160009054906101000a900473ffffffffffffffffffffffffffffffffffffffff16908060010154905082565b600080600083815260200190815260200160002060000160009054906101000a900473ffffffffffffffffffffffffffffffffffffffff169050919050565b600080fd5b6000819050919050565b61044381610430565b811461044e57600080fd5b50565b6000813590506104608161043a565b92915050565b60006020828403121561047c5761047b61042b565b5b600061048a84828501610451565b91505092915050565b600073ffffffffffffffffffffffffffffffffffffffff82169050919050565b60006104be82610493565b9050919050565b6104ce816104b3565b82525050565b6104dd81610430565b82525050565b60006040820190506104f860008301856104c5565b61050560208301846104d4565b9392505050565b600060208201905061052160008301846104c5565b92915050565b600082825260208201905092915050565b7f596f75206469646e277420626f6f6b207468697320736c6f742e000000000000600082015250565b600061056e601a83610527565b915061057982610538565b602082019050919050565b6000602082019050818103600083015261059d81610561565b9050919050565b60006020820190506105b960008301846104d4565b92915050565b7f536c6f7420616c726561647920626f6f6b65642e000000000000000000000000600082015250565b60006105f5601483610527565b9150610600826105bf565b602082019050919050565b60006020820190508181036000830152610624816105e8565b905091905056fea264697066735822122029aa5a819ace28551bd7c001d576655db2a818d17dfa55354f45c811f2a02fcb64736f6c634300081c0033",
    "linkReferences": {},
    "deployedLinkReferences": {}
}